{
  "_format": "hh-sol-artifact-1",
  "contractName": "AuctionEngine",
  "sourceName": "contracts/AuctionEngine.sol",
  "abi": [
    {
      "inputs": [
        {
          "internalType": "address",
          "name": "_energyToken",
          "type": "address"
        },
        {
          "internalType": "address",
          "name": "_turbineOwner",
          "type": "address"
        }
      ],
      "stateMutability": "nonpayable",
      "type": "constructor"
    },
    {
      "inputs": [
        {
          "internalType": "address",
          "name": "owner",
          "type": "address"
        }
      ],
      "name": "OwnableInvalidOwner",
      "type": "error"
    },
    {
      "inputs": [
        {
          "internalType": "address",
          "name": "account",
          "type": "address"
        }
      ],
      "name": "OwnableUnauthorizedAccount",
      "type": "error"
    },
    {
      "anonymous": false,
      "inputs": [
        {
          "indexed": true,
          "internalType": "uint256",
          "name": "auctionId",
          "type": "uint256"
        },
        {
          "indexed": false,
          "internalType": "string",
          "name": "reason",
          "type": "string"
        }
      ],
      "name": "AuctionCancelled",
      "type": "event"
    },
    {
      "anonymous": false,
      "inputs": [
        {
          "indexed": true,
          "internalType": "uint256",
          "name": "auctionId",
          "type": "uint256"
        },
        {
          "indexed": true,
          "internalType": "address",
          "name": "winner",
          "type": "address"
        },
        {
          "indexed": false,
          "internalType": "uint256",
          "name": "pricePerToken",
          "type": "uint256"
        },
        {
          "indexed": false,
          "internalType": "uint256",
          "name": "energyTraded",
          "type": "uint256"
        },
        {
          "indexed": false,
          "internalType": "uint256",
          "name": "totalValue",
          "type": "uint256"
        },
        {
          "indexed": false,
          "internalType": "uint256",
          "name": "timestamp",
          "type": "uint256"
        }
      ],
      "name": "AuctionSettled",
      "type": "event"
    },
    {
      "anonymous": false,
      "inputs": [
        {
          "indexed": true,
          "internalType": "uint256",
          "name": "auctionId",
          "type": "uint256"
        },
        {
          "indexed": true,
          "internalType": "uint256",
          "name": "hour",
          "type": "uint256"
        },
        {
          "indexed": false,
          "internalType": "uint256",
          "name": "energyAvailable",
          "type": "uint256"
        },
        {
          "indexed": false,
          "internalType": "uint256",
          "name": "startTime",
          "type": "uint256"
        },
        {
          "indexed": false,
          "internalType": "uint256",
          "name": "bidDeadline",
          "type": "uint256"
        },
        {
          "indexed": false,
          "internalType": "uint256",
          "name": "revealDeadline",
          "type": "uint256"
        }
      ],
      "name": "AuctionStarted",
      "type": "event"
    },
    {
      "anonymous": false,
      "inputs": [
        {
          "indexed": true,
          "internalType": "uint256",
          "name": "auctionId",
          "type": "uint256"
        },
        {
          "indexed": true,
          "internalType": "address",
          "name": "buyer",
          "type": "address"
        },
        {
          "indexed": false,
          "internalType": "bytes32",
          "name": "bidCommitment",
          "type": "bytes32"
        }
      ],
      "name": "BidPlaced",
      "type": "event"
    },
    {
      "anonymous": false,
      "inputs": [
        {
          "indexed": true,
          "internalType": "uint256",
          "name": "auctionId",
          "type": "uint256"
        },
        {
          "indexed": true,
          "internalType": "address",
          "name": "buyer",
          "type": "address"
        },
        {
          "indexed": false,
          "internalType": "uint256",
          "name": "price",
          "type": "uint256"
        },
        {
          "indexed": false,
          "internalType": "bool",
          "name": "valid",
          "type": "bool"
        }
      ],
      "name": "BidRevealed",
      "type": "event"
    },
    {
      "anonymous": false,
      "inputs": [
        {
          "indexed": true,
          "internalType": "address",
          "name": "previousOwner",
          "type": "address"
        },
        {
          "indexed": true,
          "internalType": "address",
          "name": "newOwner",
          "type": "address"
        }
      ],
      "name": "OwnershipTransferred",
      "type": "event"
    },
    {
      "inputs": [],
      "name": "BID_DURATION",
      "outputs": [
        {
          "internalType": "uint256",
          "name": "",
          "type": "uint256"
        }
      ],
      "stateMutability": "view",
      "type": "function"
    },
    {
      "inputs": [],
      "name": "MIN_ENERGY_FOR_AUCTION",
      "outputs": [
        {
          "internalType": "uint256",
          "name": "",
          "type": "uint256"
        }
      ],
      "stateMutability": "view",
      "type": "function"
    },
    {
      "inputs": [],
      "name": "REVEAL_DURATION",
      "outputs": [
        {
          "internalType": "uint256",
          "name": "",
          "type": "uint256"
        }
      ],
      "stateMutability": "view",
      "type": "function"
    },
    {
      "inputs": [],
      "name": "auctionCounter",
      "outputs": [
        {
          "internalType": "uint256",
          "name": "",
          "type": "uint256"
        }
      ],
      "stateMutability": "view",
      "type": "function"
    },
    {
      "inputs": [
        {
          "internalType": "uint256",
          "name": "",
          "type": "uint256"
        }
      ],
      "name": "auctions",
      "outputs": [
        {
          "internalType": "uint256",
          "name": "auctionId",
          "type": "uint256"
        },
        {
          "internalType": "uint256",
          "name": "hour",
          "type": "uint256"
        },
        {
          "internalType": "uint256",
          "name": "energyAvailable",
          "type": "uint256"
        },
        {
          "internalType": "uint256",
          "name": "bidDeadline",
          "type": "uint256"
        },
        {
          "internalType": "uint256",
          "name": "revealDeadline",
          "type": "uint256"
        },
        {
          "internalType": "uint256",
          "name": "highestBid",
          "type": "uint256"
        },
        {
          "internalType": "address",
          "name": "winner",
          "type": "address"
        },
        {
          "internalType": "bool",
          "name": "settled",
          "type": "bool"
        },
        {
          "internalType": "uint256",
          "name": "settlementTime",
          "type": "uint256"
        }
      ],
      "stateMutability": "view",
      "type": "function"
    },
    {
      "inputs": [
        {
          "internalType": "uint256",
          "name": "_auctionId",
          "type": "uint256"
        },
        {
          "internalType": "string",
          "name": "_reason",
          "type": "string"
        }
      ],
      "name": "cancelAuction",
      "outputs": [],
      "stateMutability": "nonpayable",
      "type": "function"
    },
    {
      "inputs": [],
      "name": "energyToken",
      "outputs": [
        {
          "internalType": "contract EnergyToken",
          "name": "",
          "type": "address"
        }
      ],
      "stateMutability": "view",
      "type": "function"
    },
    {
      "inputs": [
        {
          "internalType": "uint256",
          "name": "_hour",
          "type": "uint256"
        }
      ],
      "name": "getAuctionByHour",
      "outputs": [
        {
          "internalType": "uint256",
          "name": "",
          "type": "uint256"
        }
      ],
      "stateMutability": "view",
      "type": "function"
    },
    {
      "inputs": [
        {
          "internalType": "uint256",
          "name": "_auctionId",
          "type": "uint256"
        }
      ],
      "name": "getAuctionDetails",
      "outputs": [
        {
          "internalType": "uint256",
          "name": "hour",
          "type": "uint256"
        },
        {
          "internalType": "uint256",
          "name": "energyAvailable",
          "type": "uint256"
        },
        {
          "internalType": "uint256",
          "name": "highestBid",
          "type": "uint256"
        },
        {
          "internalType": "address",
          "name": "winner",
          "type": "address"
        },
        {
          "internalType": "bool",
          "name": "settled",
          "type": "bool"
        },
        {
          "internalType": "uint256",
          "name": "bidDeadline",
          "type": "uint256"
        },
        {
          "internalType": "uint256",
          "name": "revealDeadline",
          "type": "uint256"
        }
      ],
      "stateMutability": "view",
      "type": "function"
    },
    {
      "inputs": [
        {
          "internalType": "uint256",
          "name": "_auctionId",
          "type": "uint256"
        }
      ],
      "name": "getBidderCount",
      "outputs": [
        {
          "internalType": "uint256",
          "name": "",
          "type": "uint256"
        }
      ],
      "stateMutability": "view",
      "type": "function"
    },
    {
      "inputs": [],
      "name": "getTotalRevenue",
      "outputs": [
        {
          "internalType": "uint256",
          "name": "",
          "type": "uint256"
        }
      ],
      "stateMutability": "view",
      "type": "function"
    },
    {
      "inputs": [
        {
          "internalType": "uint256",
          "name": "_auctionId",
          "type": "uint256"
        },
        {
          "internalType": "address",
          "name": "_bidder",
          "type": "address"
        }
      ],
      "name": "hasBid",
      "outputs": [
        {
          "internalType": "bool",
          "name": "",
          "type": "bool"
        }
      ],
      "stateMutability": "view",
      "type": "function"
    },
    {
      "inputs": [
        {
          "internalType": "uint256",
          "name": "",
          "type": "uint256"
        }
      ],
      "name": "hourToAuctionId",
      "outputs": [
        {
          "internalType": "uint256",
          "name": "",
          "type": "uint256"
        }
      ],
      "stateMutability": "view",
      "type": "function"
    },
    {
      "inputs": [],
      "name": "owner",
      "outputs": [
        {
          "internalType": "address",
          "name": "",
          "type": "address"
        }
      ],
      "stateMutability": "view",
      "type": "function"
    },
    {
      "inputs": [
        {
          "internalType": "uint256",
          "name": "_auctionId",
          "type": "uint256"
        },
        {
          "internalType": "bytes32",
          "name": "_commitment",
          "type": "bytes32"
        }
      ],
      "name": "placeBid",
      "outputs": [],
      "stateMutability": "nonpayable",
      "type": "function"
    },
    {
      "inputs": [],
      "name": "renounceOwnership",
      "outputs": [],
      "stateMutability": "nonpayable",
      "type": "function"
    },
    {
      "inputs": [
        {
          "internalType": "uint256",
          "name": "_auctionId",
          "type": "uint256"
        },
        {
          "internalType": "uint256",
          "name": "_price",
          "type": "uint256"
        },
        {
          "internalType": "uint256",
          "name": "_nonce",
          "type": "uint256"
        }
      ],
      "name": "revealBid",
      "outputs": [],
      "stateMutability": "nonpayable",
      "type": "function"
    },
    {
      "inputs": [
        {
          "internalType": "uint256",
          "name": "_auctionId",
          "type": "uint256"
        }
      ],
      "name": "settleAuction",
      "outputs": [],
      "stateMutability": "nonpayable",
      "type": "function"
    },
    {
      "inputs": [
        {
          "internalType": "uint256",
          "name": "_hour",
          "type": "uint256"
        },
        {
          "internalType": "uint256",
          "name": "_energyWh",
          "type": "uint256"
        }
      ],
      "name": "startAuction",
      "outputs": [],
      "stateMutability": "nonpayable",
      "type": "function"
    },
    {
      "inputs": [
        {
          "internalType": "address",
          "name": "newOwner",
          "type": "address"
        }
      ],
      "name": "transferOwnership",
      "outputs": [],
      "stateMutability": "nonpayable",
      "type": "function"
    },
    {
      "inputs": [],
      "name": "turbineOwner",
      "outputs": [
        {
          "internalType": "address",
          "name": "",
          "type": "address"
        }
      ],
      "stateMutability": "view",
      "type": "function"
    },
    {
      "stateMutability": "payable",
      "type": "receive"
    }
  ],
  "bytecode": "0x608060405260006005553480156200001657600080fd5b5060405162001443380380620014438339810160408190526200003991620001bc565b33806200006157604051631e4fbdf760e01b8152600060048201526024015b60405180910390fd5b6200006c816200014f565b506001600160a01b038216620000c55760405162461bcd60e51b815260206004820152601560248201527f496e76616c696420746f6b656e20616464726573730000000000000000000000604482015260640162000058565b6001600160a01b0381166200011d5760405162461bcd60e51b815260206004820152601560248201527f496e76616c69642074757262696e65206f776e65720000000000000000000000604482015260640162000058565b600180546001600160a01b039384166001600160a01b03199182161790915560028054929093169116179055620001f4565b600080546001600160a01b038381166001600160a01b0319831681178455604051919092169283917f8be0079c531659141344cd1fd0a4f28419497f9722a3daafe3b4186f6b6457e09190a35050565b80516001600160a01b0381168114620001b757600080fd5b919050565b60008060408385031215620001d057600080fd5b620001db836200019f565b9150620001eb602084016200019f565b90509250929050565b61123f80620002046000396000f3fe60806040526004361061012e5760003560e01c806376e74305116100ab578063bb700c801161006f578063bb700c80146103ca578063d74d4ea1146103ea578063e4cdcba914610417578063e807c45014610444578063f20e5e3514610464578063f2fde38b1461050f57600080fd5b806376e74305146103585780638da5cb5b1461036d578063957fae961461038b578063a7e766441461039e578063b39773a6146103b457600080fd5b8063571a26a0116100f2578063571a26a01461020957806358fff20e146102cf5780636439034b1461030d57806366ab1d5214610323578063715018a61461034357600080fd5b80632b3b0ced1461013a5780632e9936111461015c578063449e88121461017c5780634ec7fb81146101b15780634fee13fc146101e957600080fd5b3661013557005b600080fd5b34801561014657600080fd5b5061015a610155366004611012565b61052f565b005b34801561016857600080fd5b5061015a61017736600461108e565b610669565b34801561018857600080fd5b5061019c6101973660046110c3565b6109d8565b60405190151581526020015b60405180910390f35b3480156101bd57600080fd5b506001546101d1906001600160a01b031681565b6040516001600160a01b0390911681526020016101a8565b3480156101f557600080fd5b5061015a6102043660046110ef565b610a07565b34801561021557600080fd5b5061028061022436600461108e565b6003602081905260009182526040909120805460018201546002830154938301546004840154600585015460068601546007909601549496939593949293919290916001600160a01b03811691600160a01b90910460ff169089565b60408051998a5260208a0198909852968801959095526060870193909352608086019190915260a08501526001600160a01b031660c0840152151560e0830152610100820152610120016101a8565b3480156102db57600080fd5b506102ff6102ea36600461108e565b6000908152600360205260409020600a015490565b6040519081526020016101a8565b34801561031957600080fd5b506102ff61070881565b34801561032f57600080fd5b5061015a61033e3660046110ef565b610b93565b34801561034f57600080fd5b5061015a610cf8565b34801561036457600080fd5b506102ff600181565b34801561037957600080fd5b506000546001600160a01b03166101d1565b34801561039757600080fd5b50476102ff565b3480156103aa57600080fd5b506102ff60055481565b3480156103c057600080fd5b506102ff61025881565b3480156103d657600080fd5b5061015a6103e5366004611111565b610d0c565b3480156103f657600080fd5b506102ff61040536600461108e565b60009081526004602052604090205490565b34801561042357600080fd5b506102ff61043236600461108e565b60046020526000908152604090205481565b34801561045057600080fd5b506002546101d1906001600160a01b031681565b34801561047057600080fd5b506104d061047f36600461108e565b60009081526003602081905260409091206001810154600282015460058301546006840154948401546004909401549295919490936001600160a01b03821693600160a01b90920460ff1692909190565b604080519788526020880196909652948601939093526001600160a01b0390911660608501521515608084015260a083015260c082015260e0016101a8565b34801561051b57600080fd5b5061015a61052a36600461113d565b610f57565b610537610f95565b60008381526003602052604090206006810154600160a01b900460ff16156105985760405162461bcd60e51b815260206004820152600f60248201526e105b1c9958591e481cd95d1d1b1959608a1b60448201526064015b60405180910390fd5b60068101805460ff60a01b1916600160a01b179055600154600282015460405163a9059cbb60e01b815233600482015260248101919091526001600160a01b039091169063a9059cbb906044016020604051808303816000875af1158015610604573d6000803e3d6000fd5b505050506040513d601f19601f82011682018060405250810190610628919061115f565b50837f847bb320e1da018de1bcb9cc28092da9d5d4fcbcc735f003ad1d9c1d4c3684e5848460405161065b929190611181565b60405180910390a250505050565b6000818152600360205260409020600481015442116106ca5760405162461bcd60e51b815260206004820152601860248201527f52657665616c20706572696f64206e6f7420636c6f7365640000000000000000604482015260640161058f565b6006810154600160a01b900460ff16156107185760405162461bcd60e51b815260206004820152600f60248201526e105b1c9958591e481cd95d1d1b1959608a1b604482015260640161058f565b60068101546001600160a01b03166107625760405162461bcd60e51b815260206004820152600d60248201526c4e6f2076616c6964206269647360981b604482015260640161058f565b60068101805460ff60a01b1916600160a01b17905542600782015560058101546002820154600091610793916111c6565b6001546006840154600285015460405163a9059cbb60e01b81526001600160a01b0392831660048201526024810191909152929350169063a9059cbb906044016020604051808303816000875af11580156107f2573d6000803e3d6000fd5b505050506040513d601f19601f82011682018060405250810190610816919061115f565b61085a5760405162461bcd60e51b8152602060048201526015602482015274151bdad95b881d1c985b9cd9995c8819985a5b1959605a1b604482015260640161058f565b60015460028301546006840154604051630200064f60e21b81526004810187905260248101929092526001600160a01b03908116604483015290911690630800193c90606401600060405180830381600087803b1580156108ba57600080fd5b505af11580156108ce573d6000803e3d6000fd5b5050600254604051600093506001600160a01b03909116915083908381818185875af1925050503d8060008114610921576040519150601f19603f3d011682016040523d82523d6000602084013e610926565b606091505b505090508061096d5760405162461bcd60e51b8152602060048201526013602482015272115512081d1c985b9cd9995c8819985a5b1959606a1b604482015260640161058f565b60068301546005840154600285015460408051928352602083019190915281018490524260608201526001600160a01b039091169085907f2a4707a2b879a6ccb6bd874ca56f54670377f1dca492d5bd50e47a526b64bd36906080015b60405180910390a350505050565b60008281526003602090815260408083206001600160a01b038516845260080190915290205415155b92915050565b610a0f610f95565b6001811015610a565760405162461bcd60e51b8152602060048201526013602482015272496e73756666696369656e7420656e6572677960681b604482015260640161058f565b60008281526004602052604090205415610abe5760405162461bcd60e51b8152602060048201526024808201527f41756374696f6e20616c72656164792065786973747320666f722074686973206044820152633437bab960e11b606482015260840161058f565b6000600560008154610acf906111dd565b918290555060008181526003602052604090208181556001810185905560028101849055909150610b02610708426111f6565b60038201819055610b1690610258906111f6565b600480830191825560068301805460ff60a01b191690556000868152602091909152604090819020849055600383015491549051869285927f890e81c7a4ea4289f484a13528be4d3b3e0637dbb8049794a8a9b952d415af4c926109ca928992429293845260208401929092526040830152606082015260800190565b600082815260036020819052604090912090810154421115610be85760405162461bcd60e51b815260206004820152600e60248201526d109a59191a5b99c818db1bdcd95960921b604482015260640161058f565b81610c2a5760405162461bcd60e51b8152602060048201526012602482015271125b9d985b1a590818dbdb5b5a5d1b595b9d60721b604482015260640161058f565b33600090815260088201602052604090205415610c7e5760405162461bcd60e51b8152602060048201526012602482015271109a5908185b1c9958591e481c1b1858d95960721b604482015260640161058f565b3360008181526008830160209081526040808320869055600a85018054600181018255908452919092200180546001600160a01b031916831790555184907f05c19d0aaaee204611d9fbe277cb625c3fd0e1bb39313e45e2194ec1f7c9d69d90610ceb9086815260200190565b60405180910390a3505050565b610d00610f95565b610d0a6000610fc2565b565b6000838152600360208190526040909120908101544211610d675760405162461bcd60e51b8152602060048201526015602482015274109a59081c195c9a5bd9081b9bdd0818db1bdcd959605a1b604482015260640161058f565b8060040154421115610db25760405162461bcd60e51b815260206004820152601460248201527314995d99585b081c195c9a5bd90818db1bdcd95960621b604482015260640161058f565b33600090815260098201602052604090205460ff1615610e075760405162461bcd60e51b815260206004820152601060248201526f105b1c9958591e481c995d99585b195960821b604482015260640161058f565b336000908152600882016020526040902054610e545760405162461bcd60e51b815260206004820152600c60248201526b139bc8189a5908199bdd5b9960a21b604482015260640161058f565b6040805160208082018690528183018590528251808303840181526060909201835281519181019190912033600090815260088501909252919020548114610ecf5760405162461bcd60e51b815260206004820152600e60248201526d125b9d985b1a59081c995d99585b60921b604482015260640161058f565b3360009081526009830160205260409020805460ff191660011790556005820154841115610f1357600582018490556006820180546001600160a01b031916331790555b6040805185815260016020820152339187917f18e12105801f19bd11c1eab40db783709bb72a09bef3a44bf2062be4963922d9910160405180910390a35050505050565b610f5f610f95565b6001600160a01b038116610f8957604051631e4fbdf760e01b81526000600482015260240161058f565b610f9281610fc2565b50565b6000546001600160a01b03163314610d0a5760405163118cdaa760e01b815233600482015260240161058f565b600080546001600160a01b038381166001600160a01b0319831681178455604051919092169283917f8be0079c531659141344cd1fd0a4f28419497f9722a3daafe3b4186f6b6457e09190a35050565b60008060006040848603121561102757600080fd5b83359250602084013567ffffffffffffffff8082111561104657600080fd5b818601915086601f83011261105a57600080fd5b81358181111561106957600080fd5b87602082850101111561107b57600080fd5b6020830194508093505050509250925092565b6000602082840312156110a057600080fd5b5035919050565b80356001600160a01b03811681146110be57600080fd5b919050565b600080604083850312156110d657600080fd5b823591506110e6602084016110a7565b90509250929050565b6000806040838503121561110257600080fd5b50508035926020909101359150565b60008060006060848603121561112657600080fd5b505081359360208301359350604090920135919050565b60006020828403121561114f57600080fd5b611158826110a7565b9392505050565b60006020828403121561117157600080fd5b8151801515811461115857600080fd5b60208152816020820152818360408301376000818301604090810191909152601f909201601f19160101919050565b634e487b7160e01b600052601160045260246000fd5b8082028115828204841417610a0157610a016111b0565b6000600182016111ef576111ef6111b0565b5060010190565b80820180821115610a0157610a016111b056fea2646970667358221220035ffa1adcf1bc34981b7e99c9e35ec3251496e8813daf6c1d5cc9c22670f9ef64736f6c63430008140033",
  "linkReferences": {},
  "deployedLinkReferences": {}
}