{
  "_format": "hh-sol-artifact-1",
  "contractName": "AuctionEngine",
  "sourceName": "contracts/AuctionEngine.sol",
  "abi": [
    {
      "inputs": [
        {
          "internalType": "address",
          "name": "_energyToken",
          "type": "address"
        },
        {
          "internalType": "address",
          "name": "_turbineOwner",
          "type": "address"
        }
      ],
      "stateMutability": "nonpayable",
      "type": "constructor"
    },
    {
      "inputs": [
        {
          "internalType": "address",
          "name": "owner",
          "type": "address"
        }
      ],
      "name": "OwnableInvalidOwner",
      "type": "error"
    },
    {
      "inputs": [
        {
          "internalType": "address",
          "name": "account",
          "type": "address"
        }
      ],
      "name": "OwnableUnauthorizedAccount",
      "type": "error"
    },
    {
      "anonymous": false,
      "inputs": [
        {
          "indexed": true,
          "internalType": "uint256",
          "name": "auctionId",
          "type": "uint256"
        },
        {
          "indexed": false,
          "internalType": "string",
          "name": "reason",
          "type": "string"
        }
      ],
      "name": "AuctionCancelled",
      "type": "event"
    },
    {
      "anonymous": false,
      "inputs": [
        {
          "indexed": true,
          "internalType": "uint256",
          "name": "auctionId",
          "type": "uint256"
        },
        {
          "indexed": true,
          "internalType": "address",
          "name": "winner",
          "type": "address"
        },
        {
          "indexed": false,
          "internalType": "uint256",
          "name": "pricePerToken",
          "type": "uint256"
        },
        {
          "indexed": false,
          "internalType": "uint256",
          "name": "energyTraded",
          "type": "uint256"
        },
        {
          "indexed": false,
          "internalType": "uint256",
          "name": "totalValue",
          "type": "uint256"
        },
        {
          "indexed": false,
          "internalType": "uint256",
          "name": "timestamp",
          "type": "uint256"
        }
      ],
      "name": "AuctionSettled",
      "type": "event"
    },
    {
      "anonymous": false,
      "inputs": [
        {
          "indexed": true,
          "internalType": "uint256",
          "name": "auctionId",
          "type": "uint256"
        },
        {
          "indexed": true,
          "internalType": "uint256",
          "name": "hour",
          "type": "uint256"
        },
        {
          "indexed": false,
          "internalType": "uint256",
          "name": "energyAvailable",
          "type": "uint256"
        },
        {
          "indexed": false,
          "internalType": "uint256",
          "name": "startTime",
          "type": "uint256"
        },
        {
          "indexed": false,
          "internalType": "uint256",
          "name": "bidDeadline",
          "type": "uint256"
        },
        {
          "indexed": false,
          "internalType": "uint256",
          "name": "revealDeadline",
          "type": "uint256"
        }
      ],
      "name": "AuctionStarted",
      "type": "event"
    },
    {
      "anonymous": false,
      "inputs": [
        {
          "indexed": true,
          "internalType": "uint256",
          "name": "auctionId",
          "type": "uint256"
        },
        {
          "indexed": true,
          "internalType": "address",
          "name": "buyer",
          "type": "address"
        },
        {
          "indexed": false,
          "internalType": "bytes32",
          "name": "bidCommitment",
          "type": "bytes32"
        }
      ],
      "name": "BidPlaced",
      "type": "event"
    },
    {
      "anonymous": false,
      "inputs": [
        {
          "indexed": true,
          "internalType": "uint256",
          "name": "auctionId",
          "type": "uint256"
        },
        {
          "indexed": true,
          "internalType": "address",
          "name": "buyer",
          "type": "address"
        },
        {
          "indexed": false,
          "internalType": "uint256",
          "name": "price",
          "type": "uint256"
        },
        {
          "indexed": false,
          "internalType": "bool",
          "name": "valid",
          "type": "bool"
        }
      ],
      "name": "BidRevealed",
      "type": "event"
    },
    {
      "anonymous": false,
      "inputs": [
        {
          "indexed": true,
          "internalType": "uint256",
          "name": "auctionId",
          "type": "uint256"
        },
        {
          "indexed": false,
          "internalType": "uint256",
          "name": "energyAvailable",
          "type": "uint256"
        },
        {
          "indexed": false,
          "internalType": "uint256",
          "name": "highestBid",
          "type": "uint256"
        },
        {
          "indexed": false,
          "internalType": "address",
          "name": "winner",
          "type": "address"
        }
      ],
      "name": "DebugAuctionDetails",
      "type": "event"
    },
    {
      "anonymous": false,
      "inputs": [
        {
          "indexed": false,
          "internalType": "uint256",
          "name": "contractBalance",
          "type": "uint256"
        },
        {
          "indexed": false,
          "internalType": "uint256",
          "name": "tokensToBurn",
          "type": "uint256"
        }
      ],
      "name": "DebugTokenBalance",
      "type": "event"
    },
    {
      "anonymous": false,
      "inputs": [
        {
          "indexed": true,
          "internalType": "address",
          "name": "previousOwner",
          "type": "address"
        },
        {
          "indexed": true,
          "internalType": "address",
          "name": "newOwner",
          "type": "address"
        }
      ],
      "name": "OwnershipTransferred",
      "type": "event"
    },
    {
      "inputs": [],
      "name": "BID_DURATION",
      "outputs": [
        {
          "internalType": "uint256",
          "name": "",
          "type": "uint256"
        }
      ],
      "stateMutability": "view",
      "type": "function"
    },
    {
      "inputs": [],
      "name": "MIN_ENERGY_FOR_AUCTION",
      "outputs": [
        {
          "internalType": "uint256",
          "name": "",
          "type": "uint256"
        }
      ],
      "stateMutability": "view",
      "type": "function"
    },
    {
      "inputs": [],
      "name": "REVEAL_DURATION",
      "outputs": [
        {
          "internalType": "uint256",
          "name": "",
          "type": "uint256"
        }
      ],
      "stateMutability": "view",
      "type": "function"
    },
    {
      "inputs": [],
      "name": "auctionCounter",
      "outputs": [
        {
          "internalType": "uint256",
          "name": "",
          "type": "uint256"
        }
      ],
      "stateMutability": "view",
      "type": "function"
    },
    {
      "inputs": [
        {
          "internalType": "uint256",
          "name": "",
          "type": "uint256"
        }
      ],
      "name": "auctions",
      "outputs": [
        {
          "internalType": "uint256",
          "name": "auctionId",
          "type": "uint256"
        },
        {
          "internalType": "uint256",
          "name": "hour",
          "type": "uint256"
        },
        {
          "internalType": "uint256",
          "name": "energyAvailable",
          "type": "uint256"
        },
        {
          "internalType": "uint256",
          "name": "bidDeadline",
          "type": "uint256"
        },
        {
          "internalType": "uint256",
          "name": "revealDeadline",
          "type": "uint256"
        },
        {
          "internalType": "uint256",
          "name": "highestBid",
          "type": "uint256"
        },
        {
          "internalType": "address",
          "name": "winner",
          "type": "address"
        },
        {
          "internalType": "bool",
          "name": "settled",
          "type": "bool"
        },
        {
          "internalType": "uint256",
          "name": "settlementTime",
          "type": "uint256"
        }
      ],
      "stateMutability": "view",
      "type": "function"
    },
    {
      "inputs": [
        {
          "internalType": "uint256",
          "name": "_auctionId",
          "type": "uint256"
        },
        {
          "internalType": "string",
          "name": "_reason",
          "type": "string"
        }
      ],
      "name": "cancelAuction",
      "outputs": [],
      "stateMutability": "nonpayable",
      "type": "function"
    },
    {
      "inputs": [],
      "name": "energyToken",
      "outputs": [
        {
          "internalType": "contract EnergyToken",
          "name": "",
          "type": "address"
        }
      ],
      "stateMutability": "view",
      "type": "function"
    },
    {
      "inputs": [
        {
          "internalType": "uint256",
          "name": "_hour",
          "type": "uint256"
        }
      ],
      "name": "getAuctionByHour",
      "outputs": [
        {
          "internalType": "uint256",
          "name": "",
          "type": "uint256"
        }
      ],
      "stateMutability": "view",
      "type": "function"
    },
    {
      "inputs": [
        {
          "internalType": "uint256",
          "name": "_auctionId",
          "type": "uint256"
        }
      ],
      "name": "getAuctionDetails",
      "outputs": [
        {
          "internalType": "uint256",
          "name": "hour",
          "type": "uint256"
        },
        {
          "internalType": "uint256",
          "name": "energyAvailable",
          "type": "uint256"
        },
        {
          "internalType": "uint256",
          "name": "highestBid",
          "type": "uint256"
        },
        {
          "internalType": "address",
          "name": "winner",
          "type": "address"
        },
        {
          "internalType": "bool",
          "name": "settled",
          "type": "bool"
        },
        {
          "internalType": "uint256",
          "name": "bidDeadline",
          "type": "uint256"
        },
        {
          "internalType": "uint256",
          "name": "revealDeadline",
          "type": "uint256"
        }
      ],
      "stateMutability": "view",
      "type": "function"
    },
    {
      "inputs": [
        {
          "internalType": "uint256",
          "name": "_auctionId",
          "type": "uint256"
        }
      ],
      "name": "getBidderCount",
      "outputs": [
        {
          "internalType": "uint256",
          "name": "",
          "type": "uint256"
        }
      ],
      "stateMutability": "view",
      "type": "function"
    },
    {
      "inputs": [],
      "name": "getTotalRevenue",
      "outputs": [
        {
          "internalType": "uint256",
          "name": "",
          "type": "uint256"
        }
      ],
      "stateMutability": "view",
      "type": "function"
    },
    {
      "inputs": [
        {
          "internalType": "uint256",
          "name": "_auctionId",
          "type": "uint256"
        },
        {
          "internalType": "address",
          "name": "_bidder",
          "type": "address"
        }
      ],
      "name": "hasBid",
      "outputs": [
        {
          "internalType": "bool",
          "name": "",
          "type": "bool"
        }
      ],
      "stateMutability": "view",
      "type": "function"
    },
    {
      "inputs": [
        {
          "internalType": "uint256",
          "name": "",
          "type": "uint256"
        }
      ],
      "name": "hourToAuctionId",
      "outputs": [
        {
          "internalType": "uint256",
          "name": "",
          "type": "uint256"
        }
      ],
      "stateMutability": "view",
      "type": "function"
    },
    {
      "inputs": [],
      "name": "owner",
      "outputs": [
        {
          "internalType": "address",
          "name": "",
          "type": "address"
        }
      ],
      "stateMutability": "view",
      "type": "function"
    },
    {
      "inputs": [
        {
          "internalType": "uint256",
          "name": "_auctionId",
          "type": "uint256"
        },
        {
          "internalType": "bytes32",
          "name": "_commitment",
          "type": "bytes32"
        }
      ],
      "name": "placeBid",
      "outputs": [],
      "stateMutability": "nonpayable",
      "type": "function"
    },
    {
      "inputs": [],
      "name": "renounceOwnership",
      "outputs": [],
      "stateMutability": "nonpayable",
      "type": "function"
    },
    {
      "inputs": [
        {
          "internalType": "uint256",
          "name": "_auctionId",
          "type": "uint256"
        },
        {
          "internalType": "uint256",
          "name": "_price",
          "type": "uint256"
        },
        {
          "internalType": "uint256",
          "name": "_nonce",
          "type": "uint256"
        }
      ],
      "name": "revealBid",
      "outputs": [],
      "stateMutability": "nonpayable",
      "type": "function"
    },
    {
      "inputs": [
        {
          "internalType": "uint256",
          "name": "_auctionId",
          "type": "uint256"
        }
      ],
      "name": "settleAuction",
      "outputs": [],
      "stateMutability": "nonpayable",
      "type": "function"
    },
    {
      "inputs": [
        {
          "internalType": "uint256",
          "name": "_hour",
          "type": "uint256"
        },
        {
          "internalType": "uint256",
          "name": "_energyWh",
          "type": "uint256"
        }
      ],
      "name": "startAuction",
      "outputs": [],
      "stateMutability": "nonpayable",
      "type": "function"
    },
    {
      "inputs": [
        {
          "internalType": "address",
          "name": "newOwner",
          "type": "address"
        }
      ],
      "name": "transferOwnership",
      "outputs": [],
      "stateMutability": "nonpayable",
      "type": "function"
    },
    {
      "inputs": [],
      "name": "turbineOwner",
      "outputs": [
        {
          "internalType": "address",
          "name": "",
          "type": "address"
        }
      ],
      "stateMutability": "view",
      "type": "function"
    },
    {
      "stateMutability": "payable",
      "type": "receive"
    }
  ],
  "bytecode": "0x608060405260006005553480156200001657600080fd5b5060405162001660380380620016608339810160408190526200003991620001bc565b33806200006157604051631e4fbdf760e01b8152600060048201526024015b60405180910390fd5b6200006c816200014f565b506001600160a01b038216620000c55760405162461bcd60e51b815260206004820152601560248201527f496e76616c696420746f6b656e20616464726573730000000000000000000000604482015260640162000058565b6001600160a01b0381166200011d5760405162461bcd60e51b815260206004820152601560248201527f496e76616c69642074757262696e65206f776e65720000000000000000000000604482015260640162000058565b600180546001600160a01b039384166001600160a01b03199182161790915560028054929093169116179055620001f4565b600080546001600160a01b038381166001600160a01b0319831681178455604051919092169283917f8be0079c531659141344cd1fd0a4f28419497f9722a3daafe3b4186f6b6457e09190a35050565b80516001600160a01b0381168114620001b757600080fd5b919050565b60008060408385031215620001d057600080fd5b620001db836200019f565b9150620001eb602084016200019f565b90509250929050565b61145c80620002046000396000f3fe60806040526004361061012e5760003560e01c806376e74305116100ab578063bb700c801161006f578063bb700c80146103ca578063d74d4ea1146103ea578063e4cdcba914610417578063e807c45014610444578063f20e5e3514610464578063f2fde38b1461050f57600080fd5b806376e74305146103585780638da5cb5b1461036d578063957fae961461038b578063a7e766441461039e578063b39773a6146103b457600080fd5b8063571a26a0116100f2578063571a26a01461020957806358fff20e146102cf5780636439034b1461030d57806366ab1d5214610323578063715018a61461034357600080fd5b80632b3b0ced1461013a5780632e9936111461015c578063449e88121461017c5780634ec7fb81146101b15780634fee13fc146101e957600080fd5b3661013557005b600080fd5b34801561014657600080fd5b5061015a610155366004611216565b61052f565b005b34801561016857600080fd5b5061015a610177366004611292565b610669565b34801561018857600080fd5b5061019c6101973660046112c7565b610bce565b60405190151581526020015b60405180910390f35b3480156101bd57600080fd5b506001546101d1906001600160a01b031681565b6040516001600160a01b0390911681526020016101a8565b3480156101f557600080fd5b5061015a6102043660046112f3565b610bfd565b34801561021557600080fd5b50610280610224366004611292565b6003602081905260009182526040909120805460018201546002830154938301546004840154600585015460068601546007909601549496939593949293919290916001600160a01b03811691600160a01b90910460ff169089565b60408051998a5260208a0198909852968801959095526060870193909352608086019190915260a08501526001600160a01b031660c0840152151560e0830152610100820152610120016101a8565b3480156102db57600080fd5b506102ff6102ea366004611292565b6000908152600360205260409020600a015490565b6040519081526020016101a8565b34801561031957600080fd5b506102ff61070881565b34801561032f57600080fd5b5061015a61033e3660046112f3565b610d97565b34801561034f57600080fd5b5061015a610efc565b34801561036457600080fd5b506102ff600181565b34801561037957600080fd5b506000546001600160a01b03166101d1565b34801561039757600080fd5b50476102ff565b3480156103aa57600080fd5b506102ff60055481565b3480156103c057600080fd5b506102ff6104b081565b3480156103d657600080fd5b5061015a6103e5366004611315565b610f10565b3480156103f657600080fd5b506102ff610405366004611292565b60009081526004602052604090205490565b34801561042357600080fd5b506102ff610432366004611292565b60046020526000908152604090205481565b34801561045057600080fd5b506002546101d1906001600160a01b031681565b34801561047057600080fd5b506104d061047f366004611292565b60009081526003602081905260409091206001810154600282015460058301546006840154948401546004909401549295919490936001600160a01b03821693600160a01b90920460ff1692909190565b604080519788526020880196909652948601939093526001600160a01b0390911660608501521515608084015260a083015260c082015260e0016101a8565b34801561051b57600080fd5b5061015a61052a366004611341565b61115b565b610537611199565b60008381526003602052604090206006810154600160a01b900460ff16156105985760405162461bcd60e51b815260206004820152600f60248201526e105b1c9958591e481cd95d1d1b1959608a1b60448201526064015b60405180910390fd5b60068101805460ff60a01b1916600160a01b179055600154600282015460405163a9059cbb60e01b815233600482015260248101919091526001600160a01b039091169063a9059cbb906044016020604051808303816000875af1158015610604573d6000803e3d6000fd5b505050506040513d601f19601f820116820180604052508101906106289190611363565b50837f847bb320e1da018de1bcb9cc28092da9d5d4fcbcc735f003ad1d9c1d4c3684e5848460405161065b929190611385565b60405180910390a250505050565b6000818152600360205260409020600481015442116106ca5760405162461bcd60e51b815260206004820152601860248201527f52657665616c20706572696f64206e6f7420636c6f7365640000000000000000604482015260640161058f565b6006810154600160a01b900460ff16156107185760405162461bcd60e51b815260206004820152600f60248201526e105b1c9958591e481cd95d1d1b1959608a1b604482015260640161058f565b60068101546001600160a01b03166107625760405162461bcd60e51b815260206004820152600d60248201526c4e6f2076616c6964206269647360981b604482015260640161058f565b60068101805460ff60a01b1916600160a01b17905542600782015560058101546002820154600091610793916113ca565b6001546040516370a0823160e01b81523060048201529192506000916001600160a01b03909116906370a0823190602401602060405180830381865afa1580156107e1573d6000803e3d6000fd5b505050506040513d601f19601f8201168201806040525081019061080591906113e1565b90507fe1ac7527fac5e564a9631e64815da56c10d913b2a8014b6dcd14a9c867fce102818460020154604051610845929190918252602082015260400190565b60405180910390a182546002840154600585015460068601546040805193845260208401929092526001600160a01b031682820152517fbc93d5ec77d260b6e334da0d9f1ee8d8623181d6023555aa3661927ee288e5109181900360600190a26001546040516370a0823160e01b81523060048201526000916001600160a01b0316906370a0823190602401602060405180830381865afa1580156108ee573d6000803e3d6000fd5b505050506040513d601f19601f8201168201806040525081019061091291906113e1565b90507fe1ac7527fac5e564a9631e64815da56c10d913b2a8014b6dcd14a9c867fce102818560020154604051610952929190918252602082015260400190565b60405180910390a16001546006850154600286015460405163a9059cbb60e01b81526001600160a01b039283166004820152602481019190915291169063a9059cbb906044016020604051808303816000875af11580156109b7573d6000803e3d6000fd5b505050506040513d601f19601f820116820180604052508101906109db9190611363565b610a1f5760405162461bcd60e51b8152602060048201526015602482015274151bdad95b881d1c985b9cd9995c8819985a5b1959605a1b604482015260640161058f565b6001546040516370a0823160e01b81523060048201526000916001600160a01b0316906370a0823190602401602060405180830381865afa158015610a68573d6000803e3d6000fd5b505050506040513d601f19601f82011682018060405250810190610a8c91906113e1565b60408051828152600060208201529192507fe1ac7527fac5e564a9631e64815da56c10d913b2a8014b6dcd14a9c867fce102910160405180910390a16002546040516000916001600160a01b03169086908381818185875af1925050503d8060008114610b15576040519150601f19603f3d011682016040523d82523d6000602084013e610b1a565b606091505b5050905080610b615760405162461bcd60e51b8152602060048201526013602482015272115512081d1c985b9cd9995c8819985a5b1959606a1b604482015260640161058f565b60068601546005870154600288015460408051928352602083019190915281018790524260608201526001600160a01b039091169088907f2a4707a2b879a6ccb6bd874ca56f54670377f1dca492d5bd50e47a526b64bd369060800160405180910390a350505050505050565b60008281526003602090815260408083206001600160a01b038516845260080190915290205415155b92915050565b610c05611199565b6001811015610c4c5760405162461bcd60e51b8152602060048201526013602482015272496e73756666696369656e7420656e6572677960681b604482015260640161058f565b60008281526004602052604090205415610cb45760405162461bcd60e51b8152602060048201526024808201527f41756374696f6e20616c72656164792065786973747320666f722074686973206044820152633437bab960e11b606482015260840161058f565b6000600560008154610cc5906113fa565b918290555060008181526003602052604090208181556001810185905560028101849055909150610cf861070842611413565b60038201819055610d0c906104b090611413565b600480830191825560068301805460ff60a01b191690556000868152602091909152604090819020849055600383015491549051869285927f890e81c7a4ea4289f484a13528be4d3b3e0637dbb8049794a8a9b952d415af4c92610d89928992429293845260208401929092526040830152606082015260800190565b60405180910390a350505050565b600082815260036020819052604090912090810154421115610dec5760405162461bcd60e51b815260206004820152600e60248201526d109a59191a5b99c818db1bdcd95960921b604482015260640161058f565b81610e2e5760405162461bcd60e51b8152602060048201526012602482015271125b9d985b1a590818dbdb5b5a5d1b595b9d60721b604482015260640161058f565b33600090815260088201602052604090205415610e825760405162461bcd60e51b8152602060048201526012602482015271109a5908185b1c9958591e481c1b1858d95960721b604482015260640161058f565b3360008181526008830160209081526040808320869055600a85018054600181018255908452919092200180546001600160a01b031916831790555184907f05c19d0aaaee204611d9fbe277cb625c3fd0e1bb39313e45e2194ec1f7c9d69d90610eef9086815260200190565b60405180910390a3505050565b610f04611199565b610f0e60006111c6565b565b6000838152600360208190526040909120908101544211610f6b5760405162461bcd60e51b8152602060048201526015602482015274109a59081c195c9a5bd9081b9bdd0818db1bdcd959605a1b604482015260640161058f565b8060040154421115610fb65760405162461bcd60e51b815260206004820152601460248201527314995d99585b081c195c9a5bd90818db1bdcd95960621b604482015260640161058f565b33600090815260098201602052604090205460ff161561100b5760405162461bcd60e51b815260206004820152601060248201526f105b1c9958591e481c995d99585b195960821b604482015260640161058f565b3360009081526008820160205260409020546110585760405162461bcd60e51b815260206004820152600c60248201526b139bc8189a5908199bdd5b9960a21b604482015260640161058f565b60408051602080820186905281830185905282518083038401815260609092018352815191810191909120336000908152600885019092529190205481146110d35760405162461bcd60e51b815260206004820152600e60248201526d125b9d985b1a59081c995d99585b60921b604482015260640161058f565b3360009081526009830160205260409020805460ff19166001179055600582015484111561111757600582018490556006820180546001600160a01b031916331790555b6040805185815260016020820152339187917f18e12105801f19bd11c1eab40db783709bb72a09bef3a44bf2062be4963922d9910160405180910390a35050505050565b611163611199565b6001600160a01b03811661118d57604051631e4fbdf760e01b81526000600482015260240161058f565b611196816111c6565b50565b6000546001600160a01b03163314610f0e5760405163118cdaa760e01b815233600482015260240161058f565b600080546001600160a01b038381166001600160a01b0319831681178455604051919092169283917f8be0079c531659141344cd1fd0a4f28419497f9722a3daafe3b4186f6b6457e09190a35050565b60008060006040848603121561122b57600080fd5b83359250602084013567ffffffffffffffff8082111561124a57600080fd5b818601915086601f83011261125e57600080fd5b81358181111561126d57600080fd5b87602082850101111561127f57600080fd5b6020830194508093505050509250925092565b6000602082840312156112a457600080fd5b5035919050565b80356001600160a01b03811681146112c257600080fd5b919050565b600080604083850312156112da57600080fd5b823591506112ea602084016112ab565b90509250929050565b6000806040838503121561130657600080fd5b50508035926020909101359150565b60008060006060848603121561132a57600080fd5b505081359360208301359350604090920135919050565b60006020828403121561135357600080fd5b61135c826112ab565b9392505050565b60006020828403121561137557600080fd5b8151801515811461135c57600080fd5b60208152816020820152818360408301376000818301604090810191909152601f909201601f19160101919050565b634e487b7160e01b600052601160045260246000fd5b8082028115828204841417610bf757610bf76113b4565b6000602082840312156113f357600080fd5b5051919050565b60006001820161140c5761140c6113b4565b5060010190565b80820180821115610bf757610bf76113b456fea264697066735822122068720900784236212cca6022d9768140abf6875d82ff2245671a5ae3241c5ba764736f6c63430008140033",
  "linkReferences": {},
  "deployedLinkReferences": {}
}