{"contracts/DataAnchor.sol":{"DataAnchor":{"abi":[{"anonymous":false,"inputs":[{"indexed":true,"internalType":"uint256","name":"hour","type":"uint256"},{"indexed":false,"internalType":"bytes32","name":"batchHash","type":"bytes32"},{"indexed":false,"internalType":"uint256","name":"totalEnergy","type":"uint256"}],"name":"BatchStored","type":"event"},{"inputs":[],"name":"batchCount","outputs":[{"internalType":"uint256","name":"","type":"uint256"}],"stateMutability":"view","type":"function"},{"inputs":[{"internalType":"uint256","name":"","type":"uint256"}],"name":"batches","outputs":[{"internalType":"bytes32","name":"batchHash","type":"bytes32"},{"internalType":"uint256","name":"totalEnergy","type":"uint256"},{"internalType":"uint256","name":"timestamp","type":"uint256"}],"stateMutability":"view","type":"function"},{"inputs":[{"internalType":"uint256","name":"hour","type":"uint256"}],"name":"getBatch","outputs":[{"components":[{"internalType":"bytes32","name":"batchHash","type":"bytes32"},{"internalType":"uint256","name":"totalEnergy","type":"uint256"},{"internalType":"uint256","name":"timestamp","type":"uint256"}],"internalType":"struct DataAnchor.BatchRecord","name":"","type":"tuple"}],"stateMutability":"view","type":"function"},{"inputs":[{"internalType":"uint256","name":"hour","type":"uint256"},{"internalType":"bytes32","name":"batchHash","type":"bytes32"},{"internalType":"uint256","name":"totalEnergy","type":"uint256"}],"name":"storeBatchHash","outputs":[],"stateMutability":"nonpayable","type":"function"},{"inputs":[{"internalType":"uint256","name":"hour","type":"uint256"},{"internalType":"bytes32","name":"expectedHash","type":"bytes32"}],"name":"verifyIntegrity","outputs":[{"internalType":"bool","name":"","type":"bool"}],"stateMutability":"view","type":"function"}],"evm":{"bytecode":{"linkReferences":{},"object":"6080604052600060015534801561001557600080fd5b506102da806100256000396000f3fe608060405234801561001057600080fd5b50600436106100575760003560e01c806306f130561461005c5780635ac4428214610078578063b32c4d8d146100f2578063b97229651461013c578063ef9d77461461016e575b600080fd5b61006560015481565b6040519081526020015b60405180910390f35b6100d0610086366004610216565b604080516060808201835260008083526020808401829052928401819052938452838252928290208251938401835280548452600181015491840191909152600201549082015290565b604080518251815260208084015190820152918101519082015260600161006f565b610121610100366004610216565b60006020819052908152604090208054600182015460029092015490919083565b6040805193845260208401929092529082015260600161006f565b61015e61014a36600461022f565b600091825260208290526040909120541490565b604051901515815260200161006f565b61018161017c366004610251565b610183565b005b6040805160608101825283815260208082018481524283850190815260008881529283905293822092518355516001808401919091559251600290920191909155815491906101d18361027d565b9091555050604080518381526020810183905284917fbb141fff108a0cbccdce405d12d5191b2d2423db3ebdba31aa057b89d2cef5a6910160405180910390a2505050565b60006020828403121561022857600080fd5b5035919050565b6000806040838503121561024257600080fd5b50508035926020909101359150565b60008060006060848603121561026657600080fd5b505081359360208301359350604090920135919050565b60006001820161029d57634e487b7160e01b600052601160045260246000fd5b506001019056fea2646970667358221220f12078cbcc1fffac8b3a438950e68d17be7ae3081e4569ca316ce9239c446ff664736f6c63430008140033","opcodes":"PUSH1 0x80 PUSH1 0x40 MSTORE PUSH1 0x0 PUSH1 0x1 SSTORE CALLVALUE DUP1 ISZERO PUSH2 0x15 JUMPI PUSH1 0x0 DUP1 REVERT JUMPDEST POP PUSH2 0x2DA DUP1 PUSH2 0x25 PUSH1 0x0 CODECOPY PUSH1 0x0 RETURN INVALID PUSH1 0x80 PUSH1 0x40 MSTORE CALLVALUE DUP1 ISZERO PUSH2 0x10 JUMPI PUSH1 0x0 DUP1 REVERT JUMPDEST POP PUSH1 0x4 CALLDATASIZE LT PUSH2 0x57 JUMPI PUSH1 0x0 CALLDATALOAD PUSH1 0xE0 SHR DUP1 PUSH4 0x6F13056 EQ PUSH2 0x5C JUMPI DUP1 PUSH4 0x5AC44282 EQ PUSH2 0x78 JUMPI DUP1 PUSH4 0xB32C4D8D EQ PUSH2 0xF2 JUMPI DUP1 PUSH4 0xB9722965 EQ PUSH2 0x13C JUMPI DUP1 PUSH4 0xEF9D7746 EQ PUSH2 0x16E JUMPI JUMPDEST PUSH1 0x0 DUP1 REVERT JUMPDEST PUSH2 0x65 PUSH1 0x1 SLOAD DUP2 JUMP JUMPDEST PUSH1 0x40 MLOAD SWAP1 DUP2 MSTORE PUSH1 0x20 ADD JUMPDEST PUSH1 0x40 MLOAD DUP1 SWAP2 SUB SWAP1 RETURN JUMPDEST PUSH2 0xD0 PUSH2 0x86 CALLDATASIZE PUSH1 0x4 PUSH2 0x216 JUMP JUMPDEST PUSH1 0x40 DUP1 MLOAD PUSH1 0x60 DUP1 DUP3 ADD DUP4 MSTORE PUSH1 0x0 DUP1 DUP4 MSTORE PUSH1 0x20 DUP1 DUP5 ADD DUP3 SWAP1 MSTORE SWAP3 DUP5 ADD DUP2 SWAP1 MSTORE SWAP4 DUP5 MSTORE DUP4 DUP3 MSTORE SWAP3 DUP3 SWAP1 KECCAK256 DUP3 MLOAD SWAP4 DUP5 ADD DUP4 MSTORE DUP1 SLOAD DUP5 MSTORE PUSH1 0x1 DUP2 ADD SLOAD SWAP2 DUP5 ADD SWAP2 SWAP1 SWAP2 MSTORE PUSH1 0x2 ADD SLOAD SWAP1 DUP3 ADD MSTORE SWAP1 JUMP JUMPDEST PUSH1 0x40 DUP1 MLOAD DUP3 MLOAD DUP2 MSTORE PUSH1 0x20 DUP1 DUP5 ADD MLOAD SWAP1 DUP3 ADD MSTORE SWAP2 DUP2 ADD MLOAD SWAP1 DUP3 ADD MSTORE PUSH1 0x60 ADD PUSH2 0x6F JUMP JUMPDEST PUSH2 0x121 PUSH2 0x100 CALLDATASIZE PUSH1 0x4 PUSH2 0x216 JUMP JUMPDEST PUSH1 0x0 PUSH1 0x20 DUP2 SWAP1 MSTORE SWAP1 DUP2 MSTORE PUSH1 0x40 SWAP1 KECCAK256 DUP1 SLOAD PUSH1 0x1 DUP3 ADD SLOAD PUSH1 0x2 SWAP1 SWAP3 ADD SLOAD SWAP1 SWAP2 SWAP1 DUP4 JUMP JUMPDEST PUSH1 0x40 DUP1 MLOAD SWAP4 DUP5 MSTORE PUSH1 0x20 DUP5 ADD SWAP3 SWAP1 SWAP3 MSTORE SWAP1 DUP3 ADD MSTORE PUSH1 0x60 ADD PUSH2 0x6F JUMP JUMPDEST PUSH2 0x15E PUSH2 0x14A CALLDATASIZE PUSH1 0x4 PUSH2 0x22F JUMP JUMPDEST PUSH1 0x0 SWAP2 DUP3 MSTORE PUSH1 0x20 DUP3 SWAP1 MSTORE PUSH1 0x40 SWAP1 SWAP2 KECCAK256 SLOAD EQ SWAP1 JUMP JUMPDEST PUSH1 0x40 MLOAD SWAP1 ISZERO ISZERO DUP2 MSTORE PUSH1 0x20 ADD PUSH2 0x6F JUMP JUMPDEST PUSH2 0x181 PUSH2 0x17C CALLDATASIZE PUSH1 0x4 PUSH2 0x251 JUMP JUMPDEST PUSH2 0x183 JUMP JUMPDEST STOP JUMPDEST PUSH1 0x40 DUP1 MLOAD PUSH1 0x60 DUP2 ADD DUP3 MSTORE DUP4 DUP2 MSTORE PUSH1 0x20 DUP1 DUP3 ADD DUP5 DUP2 MSTORE TIMESTAMP DUP4 DUP6 ADD SWAP1 DUP2 MSTORE PUSH1 0x0 DUP9 DUP2 MSTORE SWAP3 DUP4 SWAP1 MSTORE SWAP4 DUP3 KECCAK256 SWAP3 MLOAD DUP4 SSTORE MLOAD PUSH1 0x1 DUP1 DUP5 ADD SWAP2 SWAP1 SWAP2 SSTORE SWAP3 MLOAD PUSH1 0x2 SWAP1 SWAP3 ADD SWAP2 SWAP1 SWAP2 SSTORE DUP2 SLOAD SWAP2 SWAP1 PUSH2 0x1D1 DUP4 PUSH2 0x27D JUMP JUMPDEST SWAP1 SWAP2 SSTORE POP POP PUSH1 0x40 DUP1 MLOAD DUP4 DUP2 MSTORE PUSH1 0x20 DUP2 ADD DUP4 SWAP1 MSTORE DUP5 SWAP2 PUSH32 0xBB141FFF108A0CBCCDCE405D12D5191B2D2423DB3EBDBA31AA057B89D2CEF5A6 SWAP2 ADD PUSH1 0x40 MLOAD DUP1 SWAP2 SUB SWAP1 LOG2 POP POP POP JUMP JUMPDEST PUSH1 0x0 PUSH1 0x20 DUP3 DUP5 SUB SLT ISZERO PUSH2 0x228 JUMPI PUSH1 0x0 DUP1 REVERT JUMPDEST POP CALLDATALOAD SWAP2 SWAP1 POP JUMP JUMPDEST PUSH1 0x0 DUP1 PUSH1 0x40 DUP4 DUP6 SUB SLT ISZERO PUSH2 0x242 JUMPI PUSH1 0x0 DUP1 REVERT JUMPDEST POP POP DUP1 CALLDATALOAD SWAP3 PUSH1 0x20 SWAP1 SWAP2 ADD CALLDATALOAD SWAP2 POP JUMP JUMPDEST PUSH1 0x0 DUP1 PUSH1 0x0 PUSH1 0x60 DUP5 DUP7 SUB SLT ISZERO PUSH2 0x266 JUMPI PUSH1 0x0 DUP1 REVERT JUMPDEST POP POP DUP2 CALLDATALOAD SWAP4 PUSH1 0x20 DUP4 ADD CALLDATALOAD SWAP4 POP PUSH1 0x40 SWAP1 SWAP3 ADD CALLDATALOAD SWAP2 SWAP1 POP JUMP JUMPDEST PUSH1 0x0 PUSH1 0x1 DUP3 ADD PUSH2 0x29D JUMPI PUSH4 0x4E487B71 PUSH1 0xE0 SHL PUSH1 0x0 MSTORE PUSH1 0x11 PUSH1 0x4 MSTORE PUSH1 0x24 PUSH1 0x0 REVERT JUMPDEST POP PUSH1 0x1 ADD SWAP1 JUMP INVALID LOG2 PUSH5 0x6970667358 0x22 SLT KECCAK256 CALL KECCAK256 PUSH25 0xCBCC1FFFAC8B3A438950E68D17BE7AE3081E4569CA316CE923 SWAP13 PREVRANDAO PUSH16 0xF664736F6C6343000814003300000000 "},"methodIdentifiers":{"batchCount()":"06f13056","batches(uint256)":"b32c4d8d","getBatch(uint256)":"5ac44282","storeBatchHash(uint256,bytes32,uint256)":"ef9d7746","verifyIntegrity(uint256,bytes32)":"b9722965"}}}}}