{
  "_format": "hh-sol-artifact-1",
  "contractName": "DataAnchor",
  "sourceName": "contracts/DataAnchor.sol",
  "abi": [
    {
      "anonymous": false,
      "inputs": [
        {
          "indexed": true,
          "internalType": "uint256",
          "name": "hour",
          "type": "uint256"
        },
        {
          "indexed": false,
          "internalType": "bytes32",
          "name": "batchHash",
          "type": "bytes32"
        },
        {
          "indexed": false,
          "internalType": "uint256",
          "name": "totalEnergy",
          "type": "uint256"
        }
      ],
      "name": "BatchStored",
      "type": "event"
    },
    {
      "inputs": [],
      "name": "batchCount",
      "outputs": [
        {
          "internalType": "uint256",
          "name": "",
          "type": "uint256"
        }
      ],
      "stateMutability": "view",
      "type": "function"
    },
    {
      "inputs": [
        {
          "internalType": "uint256",
          "name": "",
          "type": "uint256"
        }
      ],
      "name": "batches",
      "outputs": [
        {
          "internalType": "bytes32",
          "name": "batchHash",
          "type": "bytes32"
        },
        {
          "internalType": "uint256",
          "name": "totalEnergy",
          "type": "uint256"
        },
        {
          "internalType": "uint256",
          "name": "timestamp",
          "type": "uint256"
        }
      ],
      "stateMutability": "view",
      "type": "function"
    },
    {
      "inputs": [
        {
          "internalType": "uint256",
          "name": "hour",
          "type": "uint256"
        }
      ],
      "name": "getBatch",
      "outputs": [
        {
          "components": [
            {
              "internalType": "bytes32",
              "name": "batchHash",
              "type": "bytes32"
            },
            {
              "internalType": "uint256",
              "name": "totalEnergy",
              "type": "uint256"
            },
            {
              "internalType": "uint256",
              "name": "timestamp",
              "type": "uint256"
            }
          ],
          "internalType": "struct DataAnchor.BatchRecord",
          "name": "",
          "type": "tuple"
        }
      ],
      "stateMutability": "view",
      "type": "function"
    },
    {
      "inputs": [
        {
          "internalType": "uint256",
          "name": "hour",
          "type": "uint256"
        },
        {
          "internalType": "bytes32",
          "name": "batchHash",
          "type": "bytes32"
        },
        {
          "internalType": "uint256",
          "name": "totalEnergy",
          "type": "uint256"
        }
      ],
      "name": "storeBatchHash",
      "outputs": [],
      "stateMutability": "nonpayable",
      "type": "function"
    },
    {
      "inputs": [
        {
          "internalType": "uint256",
          "name": "hour",
          "type": "uint256"
        },
        {
          "internalType": "bytes32",
          "name": "expectedHash",
          "type": "bytes32"
        }
      ],
      "name": "verifyIntegrity",
      "outputs": [
        {
          "internalType": "bool",
          "name": "",
          "type": "bool"
        }
      ],
      "stateMutability": "view",
      "type": "function"
    }
  ],
  "bytecode": "0x6080604052600060015534801561001557600080fd5b506102da806100256000396000f3fe608060405234801561001057600080fd5b50600436106100575760003560e01c806306f130561461005c5780635ac4428214610078578063b32c4d8d146100f2578063b97229651461013c578063ef9d77461461016e575b600080fd5b61006560015481565b6040519081526020015b60405180910390f35b6100d0610086366004610216565b604080516060808201835260008083526020808401829052928401819052938452838252928290208251938401835280548452600181015491840191909152600201549082015290565b604080518251815260208084015190820152918101519082015260600161006f565b610121610100366004610216565b60006020819052908152604090208054600182015460029092015490919083565b6040805193845260208401929092529082015260600161006f565b61015e61014a36600461022f565b600091825260208290526040909120541490565b604051901515815260200161006f565b61018161017c366004610251565b610183565b005b6040805160608101825283815260208082018481524283850190815260008881529283905293822092518355516001808401919091559251600290920191909155815491906101d18361027d565b9091555050604080518381526020810183905284917fbb141fff108a0cbccdce405d12d5191b2d2423db3ebdba31aa057b89d2cef5a6910160405180910390a2505050565b60006020828403121561022857600080fd5b5035919050565b6000806040838503121561024257600080fd5b50508035926020909101359150565b60008060006060848603121561026657600080fd5b505081359360208301359350604090920135919050565b60006001820161029d57634e487b7160e01b600052601160045260246000fd5b506001019056fea2646970667358221220f12078cbcc1fffac8b3a438950e68d17be7ae3081e4569ca316ce9239c446ff664736f6c63430008140033",
  "linkReferences": {},
  "deployedLinkReferences": {}
}