{
  "_format": "hh-sol-artifact-1",
  "contractName": "EnergyToken",
  "sourceName": "contracts/EnergyToken.sol",
  "abi": [
    {
      "inputs": [],
      "stateMutability": "nonpayable",
      "type": "constructor"
    },
    {
      "inputs": [
        {
          "internalType": "address",
          "name": "spender",
          "type": "address"
        },
        {
          "internalType": "uint256",
          "name": "allowance",
          "type": "uint256"
        },
        {
          "internalType": "uint256",
          "name": "needed",
          "type": "uint256"
        }
      ],
      "name": "ERC20InsufficientAllowance",
      "type": "error"
    },
    {
      "inputs": [
        {
          "internalType": "address",
          "name": "sender",
          "type": "address"
        },
        {
          "internalType": "uint256",
          "name": "balance",
          "type": "uint256"
        },
        {
          "internalType": "uint256",
          "name": "needed",
          "type": "uint256"
        }
      ],
      "name": "ERC20InsufficientBalance",
      "type": "error"
    },
    {
      "inputs": [
        {
          "internalType": "address",
          "name": "approver",
          "type": "address"
        }
      ],
      "name": "ERC20InvalidApprover",
      "type": "error"
    },
    {
      "inputs": [
        {
          "internalType": "address",
          "name": "receiver",
          "type": "address"
        }
      ],
      "name": "ERC20InvalidReceiver",
      "type": "error"
    },
    {
      "inputs": [
        {
          "internalType": "address",
          "name": "sender",
          "type": "address"
        }
      ],
      "name": "ERC20InvalidSender",
      "type": "error"
    },
    {
      "inputs": [
        {
          "internalType": "address",
          "name": "spender",
          "type": "address"
        }
      ],
      "name": "ERC20InvalidSpender",
      "type": "error"
    },
    {
      "inputs": [
        {
          "internalType": "address",
          "name": "owner",
          "type": "address"
        }
      ],
      "name": "OwnableInvalidOwner",
      "type": "error"
    },
    {
      "inputs": [
        {
          "internalType": "address",
          "name": "account",
          "type": "address"
        }
      ],
      "name": "OwnableUnauthorizedAccount",
      "type": "error"
    },
    {
      "anonymous": false,
      "inputs": [
        {
          "indexed": true,
          "internalType": "address",
          "name": "owner",
          "type": "address"
        },
        {
          "indexed": true,
          "internalType": "address",
          "name": "spender",
          "type": "address"
        },
        {
          "indexed": false,
          "internalType": "uint256",
          "name": "value",
          "type": "uint256"
        }
      ],
      "name": "Approval",
      "type": "event"
    },
    {
      "anonymous": false,
      "inputs": [
        {
          "indexed": true,
          "internalType": "address",
          "name": "minter",
          "type": "address"
        }
      ],
      "name": "MinterAdded",
      "type": "event"
    },
    {
      "anonymous": false,
      "inputs": [
        {
          "indexed": true,
          "internalType": "address",
          "name": "minter",
          "type": "address"
        }
      ],
      "name": "MinterRemoved",
      "type": "event"
    },
    {
      "anonymous": false,
      "inputs": [
        {
          "indexed": true,
          "internalType": "address",
          "name": "previousOwner",
          "type": "address"
        },
        {
          "indexed": true,
          "internalType": "address",
          "name": "newOwner",
          "type": "address"
        }
      ],
      "name": "OwnershipTransferred",
      "type": "event"
    },
    {
      "anonymous": false,
      "inputs": [
        {
          "indexed": true,
          "internalType": "uint256",
          "name": "auctionId",
          "type": "uint256"
        },
        {
          "indexed": false,
          "internalType": "uint256",
          "name": "amount",
          "type": "uint256"
        },
        {
          "indexed": true,
          "internalType": "address",
          "name": "buyer",
          "type": "address"
        },
        {
          "indexed": false,
          "internalType": "uint256",
          "name": "timestamp",
          "type": "uint256"
        }
      ],
      "name": "TokensBurned",
      "type": "event"
    },
    {
      "anonymous": false,
      "inputs": [
        {
          "indexed": true,
          "internalType": "uint256",
          "name": "hour",
          "type": "uint256"
        },
        {
          "indexed": false,
          "internalType": "uint256",
          "name": "amount",
          "type": "uint256"
        },
        {
          "indexed": false,
          "internalType": "uint256",
          "name": "energyGenerated",
          "type": "uint256"
        },
        {
          "indexed": false,
          "internalType": "uint256",
          "name": "timestamp",
          "type": "uint256"
        }
      ],
      "name": "TokensMinted",
      "type": "event"
    },
    {
      "anonymous": false,
      "inputs": [
        {
          "indexed": true,
          "internalType": "address",
          "name": "from",
          "type": "address"
        },
        {
          "indexed": true,
          "internalType": "address",
          "name": "to",
          "type": "address"
        },
        {
          "indexed": false,
          "internalType": "uint256",
          "name": "value",
          "type": "uint256"
        }
      ],
      "name": "Transfer",
      "type": "event"
    },
    {
      "inputs": [],
      "name": "DECIMALS",
      "outputs": [
        {
          "internalType": "uint8",
          "name": "",
          "type": "uint8"
        }
      ],
      "stateMutability": "view",
      "type": "function"
    },
    {
      "inputs": [
        {
          "internalType": "address",
          "name": "_minter",
          "type": "address"
        }
      ],
      "name": "addMinter",
      "outputs": [],
      "stateMutability": "nonpayable",
      "type": "function"
    },
    {
      "inputs": [
        {
          "internalType": "address",
          "name": "owner",
          "type": "address"
        },
        {
          "internalType": "address",
          "name": "spender",
          "type": "address"
        }
      ],
      "name": "allowance",
      "outputs": [
        {
          "internalType": "uint256",
          "name": "",
          "type": "uint256"
        }
      ],
      "stateMutability": "view",
      "type": "function"
    },
    {
      "inputs": [
        {
          "internalType": "address",
          "name": "spender",
          "type": "address"
        },
        {
          "internalType": "uint256",
          "name": "value",
          "type": "uint256"
        }
      ],
      "name": "approve",
      "outputs": [
        {
          "internalType": "bool",
          "name": "",
          "type": "bool"
        }
      ],
      "stateMutability": "nonpayable",
      "type": "function"
    },
    {
      "inputs": [
        {
          "internalType": "address",
          "name": "account",
          "type": "address"
        }
      ],
      "name": "balanceOf",
      "outputs": [
        {
          "internalType": "uint256",
          "name": "",
          "type": "uint256"
        }
      ],
      "stateMutability": "view",
      "type": "function"
    },
    {
      "inputs": [
        {
          "internalType": "uint256",
          "name": "_auctionId",
          "type": "uint256"
        },
        {
          "internalType": "uint256",
          "name": "_amount",
          "type": "uint256"
        },
        {
          "internalType": "address",
          "name": "_buyer",
          "type": "address"
        }
      ],
      "name": "burnOnSettlement",
      "outputs": [],
      "stateMutability": "nonpayable",
      "type": "function"
    },
    {
      "inputs": [],
      "name": "decimals",
      "outputs": [
        {
          "internalType": "uint8",
          "name": "",
          "type": "uint8"
        }
      ],
      "stateMutability": "view",
      "type": "function"
    },
    {
      "inputs": [],
      "name": "getCirculatingSupply",
      "outputs": [
        {
          "internalType": "uint256",
          "name": "",
          "type": "uint256"
        }
      ],
      "stateMutability": "view",
      "type": "function"
    },
    {
      "inputs": [
        {
          "internalType": "uint256",
          "name": "_hour",
          "type": "uint256"
        }
      ],
      "name": "getHourlyGeneration",
      "outputs": [
        {
          "internalType": "uint256",
          "name": "",
          "type": "uint256"
        }
      ],
      "stateMutability": "view",
      "type": "function"
    },
    {
      "inputs": [
        {
          "internalType": "uint256",
          "name": "",
          "type": "uint256"
        }
      ],
      "name": "hourlyMint",
      "outputs": [
        {
          "internalType": "uint256",
          "name": "",
          "type": "uint256"
        }
      ],
      "stateMutability": "view",
      "type": "function"
    },
    {
      "inputs": [
        {
          "internalType": "address",
          "name": "_to",
          "type": "address"
        },
        {
          "internalType": "uint256",
          "name": "_hour",
          "type": "uint256"
        },
        {
          "internalType": "uint256",
          "name": "_energyWh",
          "type": "uint256"
        }
      ],
      "name": "mintHourlyGeneration",
      "outputs": [],
      "stateMutability": "nonpayable",
      "type": "function"
    },
    {
      "inputs": [
        {
          "internalType": "address",
          "name": "",
          "type": "address"
        }
      ],
      "name": "minters",
      "outputs": [
        {
          "internalType": "bool",
          "name": "",
          "type": "bool"
        }
      ],
      "stateMutability": "view",
      "type": "function"
    },
    {
      "inputs": [],
      "name": "name",
      "outputs": [
        {
          "internalType": "string",
          "name": "",
          "type": "string"
        }
      ],
      "stateMutability": "view",
      "type": "function"
    },
    {
      "inputs": [],
      "name": "owner",
      "outputs": [
        {
          "internalType": "address",
          "name": "",
          "type": "address"
        }
      ],
      "stateMutability": "view",
      "type": "function"
    },
    {
      "inputs": [
        {
          "internalType": "address",
          "name": "_minter",
          "type": "address"
        }
      ],
      "name": "removeMinter",
      "outputs": [],
      "stateMutability": "nonpayable",
      "type": "function"
    },
    {
      "inputs": [],
      "name": "renounceOwnership",
      "outputs": [],
      "stateMutability": "nonpayable",
      "type": "function"
    },
    {
      "inputs": [],
      "name": "symbol",
      "outputs": [
        {
          "internalType": "string",
          "name": "",
          "type": "string"
        }
      ],
      "stateMutability": "view",
      "type": "function"
    },
    {
      "inputs": [],
      "name": "totalEnergyGenerated",
      "outputs": [
        {
          "internalType": "uint256",
          "name": "",
          "type": "uint256"
        }
      ],
      "stateMutability": "view",
      "type": "function"
    },
    {
      "inputs": [],
      "name": "totalSupply",
      "outputs": [
        {
          "internalType": "uint256",
          "name": "",
          "type": "uint256"
        }
      ],
      "stateMutability": "view",
      "type": "function"
    },
    {
      "inputs": [
        {
          "internalType": "address",
          "name": "to",
          "type": "address"
        },
        {
          "internalType": "uint256",
          "name": "value",
          "type": "uint256"
        }
      ],
      "name": "transfer",
      "outputs": [
        {
          "internalType": "bool",
          "name": "",
          "type": "bool"
        }
      ],
      "stateMutability": "nonpayable",
      "type": "function"
    },
    {
      "inputs": [
        {
          "internalType": "address",
          "name": "from",
          "type": "address"
        },
        {
          "internalType": "address",
          "name": "to",
          "type": "address"
        },
        {
          "internalType": "uint256",
          "name": "value",
          "type": "uint256"
        }
      ],
      "name": "transferFrom",
      "outputs": [
        {
          "internalType": "bool",
          "name": "",
          "type": "bool"
        }
      ],
      "stateMutability": "nonpayable",
      "type": "function"
    },
    {
      "inputs": [
        {
          "internalType": "address",
          "name": "newOwner",
          "type": "address"
        }
      ],
      "name": "transferOwnership",
      "outputs": [],
      "stateMutability": "nonpayable",
      "type": "function"
    }
  ],
  "bytecode": "0x60806040523480156200001157600080fd5b50336040518060400160405280601081526020016f52656e657761626c6520456e6572677960801b81525060405180604001604052806006815260200165454e4552475960d01b81525081600390816200006c9190620001d0565b5060046200007b8282620001d0565b5050506001600160a01b038116620000ad57604051631e4fbdf760e01b81526000600482015260240160405180910390fd5b620000b881620000d9565b50336000908152600660205260409020805460ff191660011790556200029c565b600580546001600160a01b038381166001600160a01b0319831681179093556040519116919082907f8be0079c531659141344cd1fd0a4f28419497f9722a3daafe3b4186f6b6457e090600090a35050565b634e487b7160e01b600052604160045260246000fd5b600181811c908216806200015657607f821691505b6020821081036200017757634e487b7160e01b600052602260045260246000fd5b50919050565b601f821115620001cb57600081815260208120601f850160051c81016020861015620001a65750805b601f850160051c820191505b81811015620001c757828155600101620001b2565b5050505b505050565b81516001600160401b03811115620001ec57620001ec6200012b565b6200020481620001fd845462000141565b846200017d565b602080601f8311600181146200023c5760008415620002235750858301515b600019600386901b1c1916600185901b178555620001c7565b600085815260208120601f198616915b828110156200026d578886015182559484019460019091019084016200024c565b50858210156200028c5787850151600019600388901b60f8161c191681555b5050505050600190811b01905550565b610dfb80620002ac6000396000f3fe608060405234801561001057600080fd5b50600436106101425760003560e01c806370a08231116100b8578063983b2d561161007c578063983b2d561461028e578063a9059cbb146102a1578063d1e03dba146102b4578063dd62ed3e146102d4578063f2fde38b1461030d578063f46eccc41461032057600080fd5b806370a0823114610227578063715018a6146102505780637ae9d58c146102585780638da5cb5b1461026b57806395d89b411461028657600080fd5b806323b872dd1161010a57806323b872dd146101b85780632b112e49146101cb5780632e0f2625146101d35780633092afd5146101ed578063313ce5671461020057806345796ee11461020757600080fd5b806304d861af1461014757806306fdde03146101635780630800193c14610178578063095ea7b31461018d57806318160ddd146101b0575b600080fd5b61015060085481565b6040519081526020015b60405180910390f35b61016b610343565b60405161015a9190610bc4565b61018b610186366004610c2e565b6103d5565b005b6101a061019b366004610c63565b6104de565b604051901515815260200161015a565b600254610150565b6101a06101c6366004610c8d565b6104f8565b61015061051c565b6101db600081565b60405160ff909116815260200161015a565b61018b6101fb366004610cc9565b61052c565b60006101db565b610150610215366004610ceb565b60009081526007602052604090205490565b610150610235366004610cc9565b6001600160a01b031660009081526020819052604090205490565b61018b61057d565b61018b610266366004610d04565b610591565b6005546040516001600160a01b03909116815260200161015a565b61016b6106f9565b61018b61029c366004610cc9565b610708565b6101a06102af366004610c63565b6107ab565b6101506102c2366004610ceb565b60076020526000908152604090205481565b6101506102e2366004610d37565b6001600160a01b03918216600090815260016020908152604080832093909416825291909152205490565b61018b61031b366004610cc9565b6107b9565b6101a061032e366004610cc9565b60066020526000908152604090205460ff1681565b60606003805461035290610d6a565b80601f016020809104026020016040519081016040528092919081815260200182805461037e90610d6a565b80156103cb5780601f106103a0576101008083540402835291602001916103cb565b820191906000526020600020905b8154815290600101906020018083116103ae57829003601f168201915b5050505050905090565b336000908152602081905260409020548211156104395760405162461bcd60e51b815260206004820152601b60248201527f496e73756666696369656e7420746f6b656e7320746f206275726e000000000060448201526064015b60405180910390fd5b600082116104895760405162461bcd60e51b815260206004820152601760248201527f4275726e20616d6f756e74206d757374206265203e20300000000000000000006044820152606401610430565b61049333836107f7565b604080518381524260208201526001600160a01b0383169185917f2183ee7d35a3532195a9e77dbd8f5325ac8275264157e253c60ae0a0d3d638b791015b60405180910390a3505050565b6000336104ec818585610831565b60019150505b92915050565b600033610506858285610843565b6105118585856108c2565b506001949350505050565b600061052760025490565b905090565b610534610921565b6001600160a01b038116600081815260066020526040808220805460ff19169055517fe94479a9f7e1952cc78f2d6baab678adc1b772d936c6583def489e524cb666929190a250565b610585610921565b61058f600061094e565b565b3360009081526006602052604090205460ff166105f05760405162461bcd60e51b815260206004820152601c60248201527f43616c6c6572206e6f7420617574686f72697a6564206d696e746572000000006044820152606401610430565b6001600160a01b03831661063a5760405162461bcd60e51b8152602060048201526011602482015270125b9d985b1a59081c9958da5c1a595b9d607a1b6044820152606401610430565b6000811161067f5760405162461bcd60e51b81526020600482015260126024820152710456e65726779206d757374206265203e20360741b6044820152606401610430565b6000828152600760205260408120829055600880548392906106a2908490610da4565b909155506106b2905083826109a0565b60408051828152602081018390524281830152905183917ff6c8868bd3da889570134acde9d9003738c8230a1f0db264289302c082e6a589919081900360600190a2505050565b60606004805461035290610d6a565b610710610921565b6001600160a01b03811661075f5760405162461bcd60e51b8152602060048201526016602482015275496e76616c6964206d696e746572206164647265737360501b6044820152606401610430565b6001600160a01b038116600081815260066020526040808220805460ff19166001179055517f6ae172837ea30b801fbfcdd4108aa1d5bf8ff775444fd70256b44e6bf3dfc3f69190a250565b6000336104ec8185856108c2565b6107c1610921565b6001600160a01b0381166107eb57604051631e4fbdf760e01b815260006004820152602401610430565b6107f48161094e565b50565b6001600160a01b03821661082157604051634b637e8f60e11b815260006004820152602401610430565b61082d826000836109d2565b5050565b61083e8383836001610aef565b505050565b6001600160a01b038381166000908152600160209081526040808320938616835292905220546000198110156108bc57818110156108ad57604051637dc7a0d960e11b81526001600160a01b03841660048201526024810182905260448101839052606401610430565b6108bc84848484036000610aef565b50505050565b6001600160a01b0383166108ec57604051634b637e8f60e11b815260006004820152602401610430565b6001600160a01b0382166109165760405163ec442f0560e01b815260006004820152602401610430565b61083e8383836109d2565b6005546001600160a01b0316331461058f5760405163118cdaa760e01b8152336004820152602401610430565b600580546001600160a01b038381166001600160a01b0319831681179093556040519116919082907f8be0079c531659141344cd1fd0a4f28419497f9722a3daafe3b4186f6b6457e090600090a35050565b6001600160a01b0382166109ca5760405163ec442f0560e01b815260006004820152602401610430565b61082d600083835b6001600160a01b0383166109fd5780600260008282546109f29190610da4565b90915550610a6f9050565b6001600160a01b03831660009081526020819052604090205481811015610a505760405163391434e360e21b81526001600160a01b03851660048201526024810182905260448101839052606401610430565b6001600160a01b03841660009081526020819052604090209082900390555b6001600160a01b038216610a8b57600280548290039055610aaa565b6001600160a01b03821660009081526020819052604090208054820190555b816001600160a01b0316836001600160a01b03167fddf252ad1be2c89b69c2b068fc378daa952ba7f163c4a11628f55a4df523b3ef836040516104d191815260200190565b6001600160a01b038416610b195760405163e602df0560e01b815260006004820152602401610430565b6001600160a01b038316610b4357604051634a1406b160e11b815260006004820152602401610430565b6001600160a01b03808516600090815260016020908152604080832093871683529290522082905580156108bc57826001600160a01b0316846001600160a01b03167f8c5be1e5ebec7d5bd14f71427d1e84f3dd0314c0f7b2291e5b200ac8c7c3b92584604051610bb691815260200190565b60405180910390a350505050565b600060208083528351808285015260005b81811015610bf157858101830151858201604001528201610bd5565b506000604082860101526040601f19601f8301168501019250505092915050565b80356001600160a01b0381168114610c2957600080fd5b919050565b600080600060608486031215610c4357600080fd5b8335925060208401359150610c5a60408501610c12565b90509250925092565b60008060408385031215610c7657600080fd5b610c7f83610c12565b946020939093013593505050565b600080600060608486031215610ca257600080fd5b610cab84610c12565b9250610cb960208501610c12565b9150604084013590509250925092565b600060208284031215610cdb57600080fd5b610ce482610c12565b9392505050565b600060208284031215610cfd57600080fd5b5035919050565b600080600060608486031215610d1957600080fd5b610d2284610c12565b95602085013595506040909401359392505050565b60008060408385031215610d4a57600080fd5b610d5383610c12565b9150610d6160208401610c12565b90509250929050565b600181811c90821680610d7e57607f821691505b602082108103610d9e57634e487b7160e01b600052602260045260246000fd5b50919050565b808201808211156104f257634e487b7160e01b600052601160045260246000fdfea2646970667358221220124696db92b4ecd4b57f393d715a5d6030662f3c0e10153cf876c1fdd3afc60164736f6c63430008140033",
  "linkReferences": {},
  "deployedLinkReferences": {}
}